:020000040800F2
:1000000008100020355D0008596000085B6000089A
:10001000655F0008695F00086D5F00080000000070
:100020000000000000000000000000005D6000080B
:100030005F60000800000000616000086360000865
:10004000715F0008755F0008795F00087360000841
:100050007D5F0008815F0008855F0008895F0008F8
:100060008D5F0008915F0008955F0008995F0008A8
:100070009D5F0008A15F0008A55F0008A95F000858
:10008000AD5F0008B15F0008B55F0008B95F000808
:10009000BD5F0008C15F0008C55F0008C95F0008B8
:1000A000CD5F0008D15F0008D55F0008D95F000868
:1000B000DD5F0008E15F0008E55F0008E95F000818
:1000C000ED5F0008F15F0008F55F0008F95F0008C8
:1000D00067600008FD5F0008016000080560000817
:1000E000096000080D600008116000081560000834
:1000F0007B60000877600008196000081D60000838
:100100002160000825600008296000082D600008B3
:100110003160000835600008396000083D60000863
:1001200041600008456000086D60000849600008F3
:100130004D60000851600008556000080000000094
:1001400000000000000000000000000000000000AF
:1001500044000800400502011C3AFB00F4010000C5
:10016000FFFFFFFF48010100002000000000000029
:10017000000000000000000020204661696C202083
:10018000203A206163695F6761705F7365745F61C6
:10019000757468656E7469636174696F6E5F7265AA
:1001A00071756972656D656E7420636F6D6D616EDA
:1001B000642C20726573756C743A20307825782031
:1001C0000A0000002020537563636573733A206151
:1001D00063695F6761705F7365745F61757468659B
:1001E0006E7469636174696F6E5F7265717569724F
:1001F000656D656E7420636F6D6D616E640A0000DD
:10020000000000480100000000000048010000005C
:10021000000000480100000000000048010000004C
:10022000000000480100000000000048010000003C
:10023000000000480100000000000048010000002C
:10024000000000480100000000000048010000001C
:10025000000000480100000000000048010000000C
:1002600000000048010000000000004801000000FC
:1002700000000048010000000000004801000000EC
:1002800000000048010000000000004801000000DC
:1002900000000048010000000000004801000000CC
:1002A00000000048010000000000004801000000BC
:1002B00000000048010000000000004801000000AC
:1002C000000000480100000000000048010000009C
:1002D000000000480100000000000048010000008C
:1002E000000000480100000000000048010000007C
:1002F000000000480100000000000048010000006C
:10030000000000480100000000000048010000005B
:10031000000000480100000000000048010000004B
:10032000000000480100000000000048010000003B
:1003300068736B616E673A204F5441532053544D9C
:10034000204150504C49434154494F4E2055504C48
:100350004F414420534141525421210A00000000E2
:100360000100000003000000050000000100000083
:1003700001000000060000000A000000200000004C
:10038000020000000400000008000000100000004F
:10039000400000008000000000010000000200009A
:1003A000A0860100400D0300801A060000350C00F5
:1003B00040420F0080841E0000093D0000127A00B8
:1003C0000024F40000366E010048E801006CDC02F5
:1003D000000000000000000000000000000000001D
:1003E000000000000000000000000000000000000D
:1003F00001000000020000000300000004000000F3
:1004000070B598B0884C09A821463C2200F05CF9F0
:10041000864D0FF269260FF24D2000950196694630
:1004200000F05EF90121022000F035FA804A002137
:10043000012000F0BAFA09A800F060FB08B1C0463C
:10044000C0460DF116000021018000F084FB00F091
:10045000D1F802460621002000F0A9FB4EF66E51AD
:10046000744A089106211068079007AA2E2000F010
:100470009EFB00BF8AA21021182000F098FB00BF4D
:100480008BA21021082000F092FB1821012000F01F
:10049000B2FB00F0E1FB06A80DF11A0101900091FA
:1004A00005AB07220021012000F09BFD78A0BDF8DC
:1004B0001A1000900723BDF81400002200F089FCF8
:1004C0000DF1160000900223BDF81810BDF81400BD
:1004D000002200F07EFC002000F040FD002004908F
:1004E00010235549039108200022019300900292A5
:1004F00000230121012000F045FD010004D004F19A
:100500003C0000F00BFE03E004F1880000F006FE62
:1005100000F018FE49484FF4004101604FF00051CF
:10052000026F4878052802F0FF020EDC00200870F8
:10053000BFF34F8F424943480A6802F4E062024326
:100540000A60BFF34F8F00BFFDE789780B189A420E
:1005500038BF111A00F015FE00F04CF83A49427904
:100560000A7203794B72C2788A728378CB724278AE
:100570000A7303785B1C4B73062142798DF80520C2
:1005800003798DF80430C2788DF8032083788DF8D4
:10059000023042788DF801206A460078401C8DF8C0
:1005A0000000002000F003FB00F00AF818B070BD56
:1005B00080B54078052808BF00F002F8012002BD90
:1005C00000B587B000200690059000223CA0049260
:1005D000082100230290019100920393A022802120
:1005E000002000F06AFC07B05DF804EB16490E200D
:1005F00000F026BD80B50F490A6812F1010F0DD039
:1006000012484B6802701B0A120A42701A0A4968A3
:10061000C37081701B0C0271437102BD002000F099
:100620006DFE00B91CA002BD3C010008AC0803200F
:100630001F0700088075FF1F07B201001040005817
:100640000CED00E00400FA050810002090240020C2
:100650000021012000F0B6B9012000F0D5B9012039
:1006600000F0DAB910B50446616801F1080000F045
:1006700059FE00B10120207010BD000010B101280A
:1006800003D07047012000F0ADB900F0B3B900000D
:10069000424C45636F7265006C7AD8AC57720000AB
:1006A000123456789ABCDEF0123456789ABCDEF0DA
:1006B000FEDCBA0987654321FEDCBA098765432160
:1006C0000953544D5F4F54414AB1000011F8013BAA
:1006D000521E00F8013B1CBF11F8013BF8E77047C0
:1006E0007FB50C46664D6168664EE8612962284612
:1006F00000F042FE246805F1240000604060746050
:1007000006F108000060406001203070296829B1BE
:100710000FF2391200920294684688477FBD1FB5D8
:10072000584C04F1080000F034FE00BB2078F0B112
:10073000694604F1080000F055FE5148C16949B10D
:10074000009A029201238DF8043001A888479DF891
:10075000040000E001202070207818B1009800F01B
:10076000F6FE04E0009904F1080000F01BFE04F11D
:10077000080000F00EFE28B9207818B104F1080036
:10078000FFF766FF1FBD2DE9FC410546002000F084
:1007900053F86F882888A968EA68DFF8E480C7F30F
:1007A000090747EA802737484068C272BFB2A0F8FD
:1007B0000970D2B20C30FFF787FFD8F81020002163
:1007C00000209047002648F2E800FFF748FF12E0BB
:1007D000B4F80100B8420BD1887AC21E6869D2B25F
:1007E0008242C8BF024628696A61E11CFFF76CFFBC
:1007F000207800B1012608F1240000F0CAFD98B964
:10080000694608F1240000F0EDFD0098014600F172
:100810000B04487A0F28DBD16088B84202D12A69DC
:10082000217811706078E4E73000CCD0012000F02E
:1008300003F80020BDE8F6811149096A08B921B121
:10084000084700291CBF01200847704710B5014622
:10085000487A0F2818BF0E2807D10B4800F0ACFDCE
:10086000BDE810400020FFF7F7BE064C04F1080079
:1008700000F0A2FD04F10800BDE81040FFF7E8BE5B
:100880009023002058240020B42300200D4800218C
:1008900001604160704710B500F007F85C6800F037
:1008A00009F85C6082F3108810BDEFF3108272B615
:1008B000044B704719B1012902D1044370478443A6
:1008C00070470000982400202DE9F843654C664EDF
:1008D000A5692840A0614FF0FF372169E26960698E
:1008E000236A4FF001083CE0491C54F831301A42A9
:1008F000FAD054F8312004EBC1091040D9F80410A3
:100900000CEA0000014208BFC9F80470D9F80410CD
:10091000084000F0ABF8D9F8042008FA00F18A4347
:10092000C9F804206062EFF3108172B608FA00F291
:100930002069D24310402061022004EBC003401E16
:1009400053F808CC02EA0C0C43F808CCF5D181F33B
:100950001088606A56F8201088472169E26960694A
:10096000236AD4F818C0014011EA0C0F05D01A42CE
:1009700003D1002100EA0C02B7E76762C046C04617
:10098000EFF3108672B62269E1696069A3690240DB
:100990001A4202BF206A014200F0DFFE86F310888F
:1009A00000F0EAFEA561BDE8F18338B51446EFF327
:1009B000108572B600F05AF82B4941F8204085F3B3
:1009C000108831BD30B5EFF3108272B6254B1C692B
:1009D00004431C6153F83150284343F8310082F33B
:1009E000108830BDEFF3108172B61E4A536923EAB6
:1009F000000005E0EFF3108172B61A4A53691843FC
:100A0000506181F310887047EFF3108172B6154A78
:100A1000D3691843D061F4E72DE9F041114C666ABF
:100A20000546374616F1010F0EBF0026012000FAD9
:100A300006F6D4F82080256203E02946304600F00F
:100A40008DFEE0692842F8D06762EFF3108072B63D
:100A5000E16921EA0505E56180F31088C4F820808A
:100A6000BDE8F0813C2000206022002002460020EA
:100A7000110C090404BF1020120412F07F4F04BFB0
:100A80000830120212F0704F04BF001D120100BFA7
:100A900003A3120FC0F11F00995C401AC0B2704747
:100AA0000403020201010101000000000000000037
:100AB0001FB500F03FF84FF6524000F0B4FE14B1FD
:100AC0009DF80F0020703CE01FB5002408B1009095
:100AD000042409B10191241D6B466A4621464FF654
:100AE00054402CE000F09FFE9DF80E0005B000BDC4
:100AF000F8B500F020F84FF65A40F3E7F8B500F1EA
:100B00000C026B462D214FF66640EBE7F8B500F17D
:100B10000C026B460F214FF66840E3E7F8B500F092
:100B200003F84FF66940DDE78DF800006B466A4632
:100B30000121704704466B4600220021704700F0F7
:100B400072FE9DF80E0004B010BDF8B5FFF7ECFF83
:100B50004FF67340C6E700B587B000F024F800F008
:100B60001CF8032100F009F800F00FF800284CBF32
:100B7000FF209DF8000007B000BDADF80410ADF8EF
:100B800006107047049207A9039101220692CDF83E
:100B900014D0002101A8FFF7F6BD1822002101A8FA
:100BA00000F096BE014600208DF80000704718B591
:100BB0000C46C7B0114600F03DF88DF81D402246A6
:100BC0000DF11E0000F07EFE00F041F83F21ADF86F
:100BD00004100C22ADF8062007A903910122A41CE1
:100BE0000692049400F020F800284CBFFF209DF8E6
:100BF000000048B010BD00B5C7B000F021F80F22CA
:100C000000F007F800284CBFFF209DF8000047B017
:100C100000BDADF806203F21ADF804100222049279
:100C200007A9039101220692CDF814D0002101A852
:100C3000FFF7A9BD00228DF800208DF81C00704739
:100C400000238DF81C008DF81D108DF8003018223F
:100C5000002101A800F03CBE00B587B000208DF84F
:100C6000000000F0DFF840F2011200F01EF900F081
:100C7000E0F800284CBFFF209DF8000007B000BD41
:100C80002DE9F841C7B00446884616461F4601289C
:100C900008BF022003D002280CBF102000200DF155
:100CA0001D031D1800F035F8012C8DF81C4002D0F2
:100CB000022C1AD01BE00224224641460DF11D00F1
:100CC00000F000FE2E706F7000F0ACF800F0A4F899
:100CD0004FF4817200F017F8E41C0692049400F0BF
:100CE000A8F8002805D5FF2009E01024E4E79720A4
:100CF00005E09DF8000010B94E9800F065F8FFE798
:100D000048B0BDE8F081ADF8062007A903910322A1
:100D1000704703220021684600F0DABD2DE9F64F46
:100D20000C46C7B005469B46012C08BF022003D0E5
:100D3000022C0CBF102000200DF11F031E18FFF71E
:100D4000E8FF012CADF81C508DF81E4002D0022C9B
:100D50002DD02EE00227569C559DDDF85091DDF8F0
:100D60004CA1DDF8488148993A460DF11F0000F08A
:100D7000A9FDA6F800B086F8028086F803A086F8E0
:100D800004907571B47100F04DF800F045F84FF41F
:100D9000827207A9ADF8062003910A37032204974F
:100DA000069200F046F8002805D5FF2009E010273C
:100DB000D1E7972005E09DF8000010B9579800F0A2
:100DC00003F849B0BDE8F08FBDF8011001800020A4
:100DD000704778B5C7B01D464C9B00F055F800260B
:100DE0008DF800608DF821502A4619460DF1220039
:100DF00000F068FD00F016F800F00EF84FF4837272
:100E000000F04DF8AD1D00F012F800284CBFFF2097
:100E10009DF8000049B060BD3F21ADF80410704757
:100E20008DF800301822002101A800F051BD069273
:100E30000495CDF814D0002101A8FFF7A4BCB8B5E3
:100E4000C7B04C9C4D9D00F01FF800278DF8213055
:100E50008DF800708DF822402246294600F01BF8DC
:100E6000FFF7E0FFFFF7D8FF4FF4937200F017F899
:100E7000E41D06920494FFF7DCFF00284CBFFF201E
:100E80009DF8000048B0B0BDADF81C00ADF81E10D4
:100E90008DF8202070470DF1230000F013BDADF850
:100EA000062007A9039101227047ADF806203F21D3
:100EB000ADF804100122069270472DE9F84DC7B035
:100EC0009446DDF840E1519A559D569EDDF84CA1BF
:100ED000ADF81D108DF81C004FF0000BADF81FC0D1
:100EE0008DF821308DF822E000F02CF800F01FF88A
:100EF00024F8095F668000F0CFF83F20ADF80400C9
:100F000083210120ADF8061000F00AF800F0FFF888
:100F100000284CBFFF209DF8000048B0BDE8F08DD0
:100F200007AA5744069003920D370497704788F834
:100F300000A007AC5499E419524608F1010054444A
:100F400000F0C0BC8DF82320174652998DF800B0F0
:100F50000DF1240809A8B84400F0B4BC00B5C7B02E
:100F600000F087F800F098F800F090F8852200F083
:100F700086F800F0CBF800284CBFFF209DF8000059
:100F800047B000BD2DE9F841C7B04FF0000800F0B0
:100F900022F84E9F4F9E509D529C51988DF8008094
:100FA0000DF123018DF81F308DF820708DF8216030
:100FB0008DF8225008608DF8274000F06DF88622E9
:100FC00000F085F80C2200F09DF800284CBFFF20AF
:100FD0009DF800004AE08DF81C0007A8417082705F
:100FE0007047F8B5C8B005460E4617461C4600F0D7
:100FF00022F808A8467087708DF8205000F062F83B
:101000008A2200F04EF8032200F051F8002848BF71
:10101000FF200ED49DF8000058B94F994E98BDF8A6
:1010200001202280BDF803300380BDF80500088050
:10103000002049B0F0BD07220021684600F048BCFE
:1010400018B5C7B000F049F800F04FF800F024F8E8
:1010500000F01CF88E2200F04CF800F058F8002840
:101060004CBFFF209DF8000048B010BD48B0BDE85F
:10107000F08100228DF800208DF81C007047ADF83B
:10108000062007A903910122049270473F21ADF881
:10109000041070478DF800301822002101A800F0DC
:1010A00017BCADF80A203F21ADF808107047059233
:1010B00008A9049107220792CDF818D0002102A8B0
:1010C000FFF761BB1822002102A800F001BCADF8B7
:1010D00006203F21ADF804107047002304468DF828
:1010E00000308DF81C40224670470DF11D0000F0C5
:1010F000E9BBADF8062007A903910122641C069202
:1011000004947047049207A9039101220692CDF836
:1011100014D0002101A8FFF736BB2E000EB4C0B5D5
:10112000024603A800210190009101AB012104486F
:1011300078440C3000F0D9FB06BC5DF810FB00BF12
:101140003F4F000007490020087700220648027040
:1011500001F01DBB03490A7F41F82200087F401CB3
:101160000877704704240020CC24002000EB810085
:101170005F4AD0F88010914201D0012070470020D2
:1011800070472DE9F04104460D460026DFF86481E2
:1011900002214046FFF7EAFF0028F9D101F050FB99
:1011A0000120FFF7BBFC002704E0381900F043F8EA
:1011B00006467F1CAF4201D23000F6D016B1ED1BBF
:1011C0006D1C09E00020FFF7A9FC01F049FB4FF47A
:1011D0008060C8F8080000252846BDE8F0812DE9A8
:1011E000F8438046894615460024424E0221304687
:1011F000FFF7BCFF0028F9D101F022FB002709E02E
:1012000009EBC700D0E9002308EBC70000F022F883
:1012100004467F1CAF4201D2002CF1D014B1ED1B6B
:101220006D1C05E001F01CFB4FF48060B0600025F0
:101230002846BDE8F283014682B0002001E0009814
:10124000401C009000982328F9D30022002300209E
:1012500002B001E0014601202DE9F84F86B00226D8
:1012600002964FF00108CDF8108003918DF8000030
:10127000059192461F4E204F9B46EFF31089386828
:101280000103FCD472B6B06908B1012517E007214B
:101290003046FFF76BFF0025C4B284B99DF800000B
:1012A00020B901A902A801F02FFB05E005995246DB
:1012B0005B46012001F096FA4FF48060F06189F3FB
:1012C00010880DB1002001E01CB101200020C046B3
:1012D0008046254318BFB8F1000FD0D138684103CC
:1012E000FCD4B8F101008041C00F07B0BDE8F08F19
:1012F00000040080001400581040005820B501463A
:101300000648074D00E00838C2798A4218BFA84253
:10131000F9D18A4218BF002020BD00BFF873FF1F1B
:101320000070FF1F70B504466078FF2802BFB4F854
:10133000030000F47F40B0F5406F13D100260D4D3F
:1013400000E0761C297FF0B288420BD2F1B255F84A
:101350002120204690470100F3D003D0022806D078
:10136000012070BD2046BDE87040FFF721B9002084
:1013700070BD00BF042400200249034A01600261DD
:10138000704700BF4B1400087114000800604060F3
:101390007047EFF3108172B6026882420CBF0120E1
:1013A00000201CE0EFF3108272B603680B60486007
:1013B00001600868416024E0EFF3108272B60860B3
:1013C00043684B604160486801601AE0EFF31081A8
:1013D00072B642680368136002684368536081F321
:1013E0001088704710B5EFF3108472B602680A6077
:1013F0000168FFE70846FFF7E9FF84F3108810BD96
:101400000B6082F31088704701F065BB6C486D4932
:10141000016001F12002426001F13003836001F1BB
:101420004002026201F14803436201F15002C260CE
:1014300001F15803036101F17402426101F1780383
:1014400083618431C16101F064BB38B504465E4DEF
:101450002846FFF79BFF5A494868A1680160E26887
:101460005A49C2604160856001F06FFB58482AE02C
:1014700080B553484268136801211972406801F031
:101480006AFB002002BD38B5514C4F4D04E000F01E
:1014900041F80098216888472846FFF77AFF00281E
:1014A000F5D031BD4A484168084738B50446494D32
:1014B0002846006040604249C868A16801604560F4
:1014C00001F04EFB444821680160626842600020E0
:1014D00032BD80B53A48C268136810211972C068DD
:1014E00001F044FB002002BD3548C168C2683A499A
:1014F00010680B68184738B5374C364D04E000F0DB
:1015000009F80098616888472846FFF742FF0028DD
:10151000F5D031BD69462846FFF764BF38B50446AB
:101520002E4D2846FFF732FF2D48006040602448CA
:101530000069A1688160E268C2600561216801609C
:1015400062684260216941616269826131BD80B532
:1015500001462348FFF730FFBDE802400FF20500C7
:1015600001F00DBB38B5164C1D4D06E0FFF7D2FF5C
:10157000009920690069FFF71FFF2846FFF709FF60
:101580000028F3D031BD10B5164C204600604060F5
:101590000B4948690460BDE8104001F004BB1CB56C
:1015A000104C06E069462046FFF71CFF0098C04635
:1015B000C0462046FFF7EDFE0028F3D013BD000023
:1015C00000000320B8090320580A03209C080320C8
:1015D000A8240020600A0320B0240020480A032029
:1015E000A0240020500A0320BFF34F8F2B492C4822
:1015F0000A6802F4E06202430A60BFF34F8F00BF43
:10160000FDE710B52748284C88B0016841F4004137
:101610000160FFF73BF925480268042161F30202EB
:1016200002600020224901F0F3FB01F080FD01215E
:101630000120FFF730F9002001F028FE012001F021
:1016400025FE022001F022FE012001F043FE0121CF
:10165000002001F058FEFFF7D9FE164A00210220B3
:10166000FFF7A3F904F23C51009169460FF24902D9
:101670000FF24900019200F081F804F254710291D6
:1016800004F5C96240F23C5103920591049402A80A
:10169000FFF744FFFFF7B8FE08B010BD0CED00E007
:1016A0000400FA05080000583C000320800400589C
:1016B000BC230020BF1700087047000070B5054626
:1016C000686800F10B063188B1F5124F18D100207F
:1016D00001F008FEB0784FF0005490B9217802294B
:1016E00008BF207036D001F09FFD0120FFF72DFAD2
:1016F00000210120FFF7CFF8FEF782FE01202870BD
:1017000070BD0020FFF7D4F9FF2823D042F21075F6
:10171000A0B9207802280BD100212170FFF7E8F949
:10172000002001F0D7FD0121002001F04BFEFAE777
:101730000220207000210020FFF7C6F9002001F0F0
:10174000C9FD284601F0D9FE0020FFF7B1F9103895
:101750002028F6D3FFF748FF00BF70474FF0FF3057
:10176000FFF7B2B800210220FFF72CB90220FFF7E3
:101770004BB90220FFF750B9704700007FB50C4607
:101780004D4D61684D4EE8612962284601F0DCFE4E
:101790002468746006F1080000604060012000F0D9
:1017A00068F801203070296841B10FF2E9020FF2A8
:1017B000ED03009201930294684688477FBD1FB5F0
:1017C0003E4C04F10800FFF7E4FD00BB2078F0B1C7
:1017D000694604F10800FFF705FE3748C16949B1C1
:1017E000009A029201238DF8043001A888479DF8E1
:1017F000040000E001202070207818B10098FFF765
:10180000A6FE04E0009904F10800FFF7CBFD04F107
:101810000800FFF7BEFD28B9207818B104F10800D0
:10182000FFF7A0FF1FBD2DE9F04105460E4690468B
:101830001C46002000F01DF8204F7868A0F80950E1
:10184000C672324641460C30FEF73EFF1A4A136913
:1018500000210020984748F2E800FFF78AFF7968E6
:101860008A78D21C04F10800FEF72EFFBDE8F04193
:10187000012010B51049124C096A20B901B18847FE
:101880000021217010BD0120207011B1BDE8104071
:10189000084710BD0020FFF769BF000010B50146E2
:1018A000064C04F10800FFF787FD04F10800BDE8CD
:1018B0001040FFF757BF0000E023002068240020FD
:1018C000CD24002010B50446FEF7FEFE204610BDD4
:1018D00010B5044610460A460146204601F03EFE79
:1018E000204610BD40F0200070472DE9F14FB0B008
:1018F000924604910DF142013A9A2B9199464A7011
:1019000000200AE01AF8011B0498309A904700283A
:10191000049000F031860D98401C0D909AF800005C
:1019200050B12528EED1002100220791089209919B
:101930000A920B910C9204E00D9800F01FBE41F04A
:1019400001011AF8010F2028F9D023280CD02B28E8
:1019500004D02D2805D0302809D00BE041F0020139
:10196000EFE741F00401ECE741F00801E9E741F05D
:101970001001E6E72A280FD1D9F8002052F8040B0D
:10198000C9F8002000280F9003D540420F9041F085
:1019900004010AF1010A14E00F92DFF8E83B0AE0C3
:1019A0000F98984205DA00EB800402EB4402303ACB
:1019B0000F920AF1010A9AF80020A2F130000A28D9
:1019C000EED39AF800002E2803D04FF0FF320E928B
:1019D00029E01AF8010F2A2809D1D9F8000050F897
:1019E000042BC9F800000E920AF1010A1BE02D2811
:1019F0000CBF0AF1010A002000220E92DFF8844B8E
:101A00000BE040B90E9AA24205DA02EB820503EB25
:101A10004503303B0E930AF1010A9AF80030A3F116
:101A200030020A2AEDD3ADF840100FF65C309AF878
:101A3000001001F09DFD08B11AF8010B8DF842006D
:101A40009DF84200682805D19AF8000068280CD15A
:101A5000622106E06C2804BF9AF800006C2804D1CB
:101A600071218DF842100AF1010A12A806901AF8A5
:101A700001BBBBF125012CD01C3900F09481091F5A
:101A8000022940F29081133900F0A884093900F04E
:101A90008A81891E00F03D85491E00F0EA84491EB6
:101AA000022940F28081091F00F0E384491F00F001
:101AB000EF80491E00F09284491E00F0D780C91EB5
:101AC0000CD0891E00F08A84C91E00F0878400F0C3
:101AD0002BBD01220792252100F023BDD9F800007B
:101AE00050F8044BC9F80000002C059440F0AB807E
:101AF0002B994878002800F0A1804FF0FF340FF6B2
:101B0000902001F041FD201A40F0368500F018BD0C
:101B100001236A4602A9304600F0FEFD002840F08D
:101B20002B856D1EF4D13096079D12AF75B1309E96
:101B300017F8011B0498B0470028049000F01C859A
:101B40000D98401C6D1E0D90F2D130960A9D3021EB
:101B5000002D8DF800100CDD309E01236A4602A98D
:101B6000304600F0D9FD002840F006856D1EF4D106
:101B70003096059F089D75B1309E17F8011B04989B
:101B8000B0470028049000F0F7840D98401C6D1EAB
:101B90000D90F2D130960B9D3021002D8DF8001064
:101BA0000CDD309E01236A4602A9304600F0B4FDE8
:101BB000002840F0E1846D1EF4D130960598089914
:101BC000099D471875B1309E17F8011B0498B0475E
:101BD0000028049000F0D0840D98401C6D1E0D90DC
:101BE000F2D130960C9D3021002D8DF800100CDDC7
:101BF000309E01236A4602A9304600F08DFD002880
:101C000040F0BA846D1EF4D130969DF84000410733
:101C10007FF584AE2020002C8DF800007FF77EAE8B
:101C2000309D01236A4602A9284600F075FD002870
:101C300040F0A284641EF4D130956FE60FF6383080
:101C4000059000F07DBC0E9D002D04D5204601F0CE
:101C5000BBFC044607E02A46204601F0D1FC0028E0
:101C600014BF041B2C46089400F06ABCD9F800107D
:101C700051F8040BC9F8001020F00004002121F0F5
:101C8000FF35CDE9024512AB0593782100F03DBC4C
:101C90002B99487820B14FF0FF340FF6AC2030E795
:101CA0009DF84200622860D0682817D06A283FD08B
:101CB0006C2806D0712847D074282CD07A281DD0E3
:101CC00062E0D9F8001051F8040BC9F800100028A0
:101CD00066D14FF0FF340FF6882012E7D9F80010D4
:101CE00051F8040BC9F8001020B94FF0FF340FF67B
:101CF000702006E70D99018000F022BCD9F8001091
:101D000051F8040BC9F80010002849D14FF0FF34F6
:101D10000FF64C20F5E6D9F8001051F8040BC9F87D
:101D2000001000283CD14FF0FF340FF63420E8E6D5
:101D3000D9F8001051F8040BC9F8001080B94FF021
:101D4000FF340FF61C20DCE6D9F8001051F8040B24
:101D5000C9F8001020B94FF0FF340FF60420D0E688
:101D60000D9AD317C0E90023EAE3D9F8001051F81F
:101D7000040BC9F8001020B94FF0FF340FF6E01043
:101D8000BFE60D990170DBE3D9F8001051F8040BA0
:101D9000C9F8001020B94FF0FF340FF6C410B0E6B8
:101DA0000D990160CCE39DF842004C2807BFD9F89B
:101DB0000010CB1DD9F80000C31D23F00703C9F89C
:101DC0000030D3E900010833C9F80030CDE9020141
:101DD000C80F02D007982D210AE0BDF84000810706
:101DE00002D507982B2103E0C00705D507982021CD
:101DF00012AB1954401C079012A80799DDE902455F
:101E000043184BF020006128059321AE0BD00E98AB
:101E1000002802D506200E9005E001BF4BF02000FF
:101E2000672801210E91DDE902014F007F1517F1AE
:101E3000010F0DD108030BD0ABF1610203201A2A68
:101E4000089002D20FF634110FE00FF634110CE0B7
:101E500017F1010F0ED109030CD1ABF16102032080
:101E60001A2A08901CD30FF6201103221846FEF7F9
:101E70002BFC65E3DDE902016A4601F0EDFBCDE9EB
:101E800002014BF02000612811D10598302101702A
:101E9000821C0592BBF1610F0CBF7821582102E032
:101EA0000FF6E001E1E741700798801C0790DDE93B
:101EB000020120F0000231F0004308BF002A02D1E5
:101EC0000025002445E14BF02008B8F1610F40F0F7
:101ED00095800E98002847BF21210191401C019058
:101EE000019F7F1C2046294600220023DDE9024590
:101EF00001F0EAFB38BF85F0004500998DF8842099
:101F0000091F002F00910DF1850034DD06462046A3
:101F100029460022002301F0F1FB2BD21C2201F004
:101F200007FC04460D4601F0A1FCFF1F002F804670
:101F300009DD01F0B7FC02460B462046294601F0B8
:101F400079FD04460D46F01D0721B8F1000F0CDDA8
:101F5000491E5EBF08F00F0200F8012D4FEA281855
:101F6000F3D502E0002200F8012D491EFAD5C61D66
:101F7000002FCCDC30460DF18501401A01990DF19E
:101F8000850605468842C8BF0D46002D2FD48542E0
:101F900006DA0DF18500415D0829A8BF0F2000DA9F
:101FA0000020294621AA0A4400E06D1E12F80139DA
:101FB000491E8342F9D00F2804D10DF18500425CFF
:101FC000521C4254002904D50098001D21AE6D1CFE
:101FD0000090681E0BD431180A783032D3B23A2BF5
:101FE000A4BF5A443A3A401E01F80129F4D50E988C
:101FF000002840F1AD80691E0E91A9E00099DFF83C
:10200000082747F29750414391FBF2F2009225F0E6
:102010000045C2F10702002A04DD2046294600F0EF
:102020004FFB0BE052420020DFF8E01600F048FBC7
:1020300002460B462046294601F06EFD04460D4639
:10204000B8F1660F06BF009F0A3706270E983F18A3
:10205000142FC8BF142730208DF884000DF185009F
:1020600000E03046002F35DD06462046294601F0C7
:1020700077FE01460A4606F1080304200A26B2FB51
:10208000F6F606EB860EA2EB4E02303203F8012C78
:102090000A22B6FBF2F202EB820EA6EB4E063036B7
:1020A000401E03F8026DE9D1083F002F03F1080636
:1020B000D7DD084601F066FE02460B46204629465B
:1020C00001F0B8FC0022DFF8483601F069FE044652
:1020D0000D46CAE70DF18501401A0DF1850604E0B1
:1020E0000099491E401E0091761C31783029F7D0A6
:1020F000B8F1660F02D10099491C04E0B8F1650FF0
:102100000CBF012100210E9D4D19A842B8BF451EEC
:10211000002D1DD4854204DA705D3428C8BF3920F3
:1021200000DC30202946721E531800E06D1E13F8A3
:102130000149491E8442F9D0392802D1705C401C03
:102140007054002904D50098401C16466D1C009060
:10215000009C01F0FBFE406A0778DDF8388028B269
:10216000002802DC01250FF224664BF020006628CF
:1021700008BF641C16D0672846D120B210F1040FA6
:1021800048DB404546DA9DF84000641C010703D453
:1021900028B24045D8BF804620B2B8EB000848BFFF
:1021A0004FF000080FFA84FBBBF1000F00F3B5807D
:1021B0000898411C0891302205990A54B8F1000F83
:1021C00003DC9DF84000010704D50898411C0891E4
:1021D00005990F5418EB0B0FB8BFC8F1000424B2D7
:1021E0006042A0442AB20B909045B8BF4546059B7B
:1021F00008982DB209952A4631461844FEF764FA2C
:10220000A8EB05000C90D2E0BBF1610F17D14FF0A5
:10221000700B19E028B2404504DA9DF840100A0717
:1022200058BF8046B8F1010848BF4FF00008BBF125
:10223000670F14BF4FF0450B4FF0650B04E0BBF187
:10224000410F08BF4FF0500B0898411C0891B8F19E
:10225000000F059916F8012B0A5403DC9DF8400085
:1022600001071AD50898411C0891B8F1000F05998B
:102270000F5412DD6D1E28B28045B8BF4546059843
:10228000089B2AB231461844FEF71EFA08992DB26F
:1022900069180891A8EB05000B9005980899084467
:1022A00021B2002980F800B003D42B224270821C96
:1022B00004E02D2242700C46821C644200212CABAB
:1022C00020460AE004460A2094FBF0F000EB80056B
:1022D000A4EB450403F8014B491C00B20028F1DCD3
:1022E000012906DC4BF02000652804BF302002F8ED
:1022F000010B00292CAB08D1302002F8010B06E0BD
:10230000491E585C303002F8010B0029F8DC0599B1
:1023100008980844121A099249E028B221B288426A
:102320001CDA0598089B2AB231461844FEF7CCF90E
:1023300008992DB269180891ABEB0500B8F1000FB0
:102340000B9003DC9DF84000020704D50598475424
:102350000999491C0991CDF8308028E00598089B1F
:1023600022B231461844FEF7AFF908982D1B5844A5
:10237000B8F1000F089003DC9DF840100A0703D560
:10238000411C089105990F5428B28045B8BF4546B5
:102390000598089B2AB206EB0B011844FEF794F946
:1023A00008982DB228180890A8EB05000B909DF80E
:1023B000400000F01400102840F0C280079A0899ED
:1023C0000B988A18099982180C988A1882180F9805
:1023D000824280F2B580821A0A92B1E09DF84200F2
:1023E000622808D068280ED06A2814D06C281FD024
:1023F000712810D01CE0D9F8001051F8040BC9F86E
:102400000010C0B21AE0D9F8001051F8040BC9F856
:10241000001080B212E0D9F80000C21D22F00702BD
:10242000C9F80020D2E900010832C9F8002006E00E
:10243000D9F8001051F8040BC9F800100021CDE9BB
:1024400002019DF8400001075AD5DDE90223002B67
:1024500008BF002A54D04BF02000782850D10798AC
:1024600012A930220A54401C431C079301F800B003
:1024700046E09DF84200622808D068280ED06A28FD
:1024800014D06C281FD0712810D01CE0D9F800108F
:1024900051F8040BC9F8001040B21AE0D9F8001046
:1024A00051F8040BC9F8001000B212E0D9F800008E
:1024B000C21D22F00702C9F80020D2E9000108324B
:1024C000C9F8002006E0D9F8001051F8040BC9F84B
:1024D0000010C117CDE90201002902D507982D216E
:1024E0000AE0BDF84000810702D507982B2103E0E0
:1024F000C00705D50798202112AA1154401C079047
:1025000012A8079901440591594602A800F04EF817
:1025100016E001200790D9F8000050F8041BC9F814
:1025200000008DF848100BE001212522BBF1000FBF
:1025300007918DF8482003D0022207928DF849B008
:102540000F9A07980A990C9C121A0898521A0B991C
:10255000121A0998521A121A9DF84000141B4107CA
:102560003FF5E2AA2020002C8DF800007FF7DCAABE
:10257000309E2546FFF7CCBA4FF0FF3031B0BDE8B2
:10258000F08F0000CBCCCC0C686A6C747A4C0000E5
:102590007072696E74665F733A206261642025739D
:1025A00020617267756D656E740000002DE9FC474F
:1025B00007468A463C6950466F2808BF082505D063
:1025C000FFF790F9782814BF0A251025D7E90001F4
:1025D0003C2680468946BAF1640F18BFBAF1690FEC
:1025E00005D1002903D5D8F1000869EB4909B9F1F3
:1025F000000F08BFB8F1000F0CD1386B50B9082D8F
:102600003AD197F83800010736D530223B2684F8B6
:102610003B2031E08DF800A0404649462A46EB17A2
:1026200001F098FC3032D0B2761E3A2801960EDACC
:10263000A255404649462A46EB1701F08BFC8046DE
:102640005FEA010908BFB8F1000F05D108E09DF865
:1026500000001218513AEBE7F868A1198842DBD361
:10266000082D09D197F83800010705D5A05D30285D
:1026700002D0761E3020A055C6F13C02BA61A119E5
:10268000F960386B824208DA821A3A624FF6EF70CC
:10269000398F01403987BDE8F38700280ED597F8B8
:1026A000380000F01400102808D17B6B7969386A73
:1026B0005B1A1B1A9A1A002AC8BF3A62BDE8F38750
:1026C0002DE9D04306460F4614464FF00008DFF8C8
:1026D000449012E0E00707D542464B463046394663
:1026E00001F05EFB06460F464046494642464B46D1
:1026F00001F056FB641080468946002CEAD1304632
:102700003946BDE8D0830000A08601000000F03FFC
:1027100084D7974100002440F8B505460E46174679
:102720001C4600205CB117F8011BB068A847B060D8
:1027300030B1F06A401CF0620020641EF3D1F2BD9B
:102740004FF0FF30F2BD00007072696E74665F7307
:102750003A20256E20646973616C6C6F7765640044
:102760007072696E74663A2062616420256E206121
:102770007267756D656E7400000000006E616E001A
:102780004E414E00696E6600494E4600300080B5ED
:10279000C046C046C046C046C046C046C046C04609
:1027A000C046C046C046C046C046C046C046C046F9
:1027B000C046C046C046C046C046C046C046C046E9
:1027C000C046C046C046C04601F09CFCC046C0465C
:1027D000C046C046BDE8014001F00ABDDFF800F088
:1027E0000D2100202DE9F041414E07463078884602
:1027F00014461D46012808BF02201CD0012030705D
:102800000021716000F019F8010012D1012F224659
:102810002B4603D1404600F05EF803E011464046E7
:10282000FFF7DCFF00F009F832490A6822EA0707DF
:102830000F6000213170BDE8F0814FF47A701AE02A
:102840002E49CA680020002A00D4704710B52C4ACF
:102850002C4C0A600C60C968002948BF012010BDDB
:1028600024490A6842F000420A60002009680029F1
:1028700058BF0120704770B5054601F0BBFC064605
:102880001D4C2068C10306D501F0B4FC801BA84292
:10289000F7D3032070BD2068C10744BF0122226026
:1028A000010404D54FF40042226020F400404CF2B1
:1028B000FA31084004D00E4A20605060012070BDFB
:1028C0002068410305D501F095FC801BA842F7D391
:1028D000DFE7002070BD10B506490C6844F0010424
:1028E0000C6040F8042BBFF36F8F036010BD000035
:1028F0004024002014400058104000580840005860
:1029000023016745AB89EFCD2DE9F041DFF8D040D9
:10291000054620788846012808BF02204ED00120B5
:1029200020700021616000F04BF8010044D129685B
:10293000DFF8B070022919D14FF0FF32C8F800203B
:102940006E6800E0761C6968AA6851188E4208D249
:10295000304600F039F800F033F80100F2D0C8F842
:1029600000607A69DFF880100A407A613A68910560
:102970000FD53A6822F400723A60396841F4006178
:1029800039603A6822F400623A60396841F40071B3
:1029900039603A6851050FD53A6822F480623A608E
:1029A000396841F4805139603A6822F480523A60C3
:1029B000396841F48061396000222270BDE8F081FD
:1029C0004FF47A70FFF757BF08490A6822F4FF6294
:1029D00042EAC00242F4803242F002020A607047CA
:1029E000402400200040005805F8FFFF1440005824
:1029F000C0680840884201D101207047002070471C
:102A0000C0690840884201D101207047002070470A
:102A100010B5684C02212046FFF7F2FF38B160681C
:102A2000C043810703D5FEF766FD022018E00121AF
:102A30002046FFF7E5FF38B16068C043C10703D502
:102A4000FEF721FD01200BE008212046FFF7D8FF0B
:102A500038B16068C043010703D5FEF7A0FD082028
:102A6000A06010BD10B5534C02212046FFF7C0FFF7
:102A700058B96068C043810307D5606840F40030EE
:102A80006060BDE81040FEF72FBD08212046FFF72B
:102A9000AFFF70B96068C04301030AD5606846495A
:102AA00040F400206060086880474FF40022A26074
:102AB00010BD20212046FFF79BFF58B96068C04336
:102AC000810207D5606840F400106060BDE81040E6
:102AD000FEF7E8BC10BD394881B0016841F48011AF
:102AE0000160006800F4801000900098344801688C
:102AF00041F4007101603348026842F400720260E0
:102B000040BF20BF3048016841F40041016001B07E
:102B1000704780B52D48016841F48011016000685C
:102B200000F48010009000982248016841F00101F3
:102B30000160026842F4803202602C2001F098FBB0
:102B4000BDE802402D2001F093BB214801684908EF
:102B50004900016070471F494FF48030086070479A
:102B60001B48016821F002010160704718484FF4CA
:102B700000314160026822F400320260704738B5CB
:102B800004460C4D08212846FFF732FF30B10A48B1
:102B90000460696821F40021696031BDA0474FF4E9
:102BA0000020A86031BD0A48016821F008010160D9
:102BB00070470000000C0058C0240020500100584D
:102BC000D4080058200800580C0400585000005841
:102BD000040C0058080C0058DFF814150A6892B26B
:102BE00000E00246086880B28242FAD17047F0B530
:102BF000DFF80035DFF800551E78182402466243DE
:102C0000B0422A4404D118785870547D1C700FE0EB
:102C1000167D507D92F815C005F11507664306280C
:102C200007F806C004D0167D143514FB00F42E55A9
:102C3000012010731A78062A02BF00294FF0FF30D6
:102C40005860F0BD10B5DFF8AC44606810F1010FBA
:102C500010D0FFF7C1FF6168DFF8A02481422FBFC9
:102C6000636861685388CB1851781278181A484302
:102C7000D04000E0002080B210BD2DE9F84FDFF811
:102C80007C54DFF87CB4D5F80880D8F80000DBF875
:102C900000104A0500F073F9DFF85864DFF858A413
:102CA00021F4806181604FF0180934780AF108003E
:102CB00019FB04F14758FFF7C5FF874202D20027EE
:102CC000012105E0A9884118B94203D2AF8800214B
:102CD000B17015E001223F1AB27011E00A590AF1F1
:102CE0000803121A1A5108E009FB04F40AF108015A
:102CF0000A598242F2D200230B510AEB04014C7DA7
:102D0000062CF1D1B8B238B9FFF766FF7060032026
:102D1000BDE8F24F01F0D7BA022802DA287801287C
:102D200000D07F1ED8F80000C1684A07FAD500F02D
:102D30002CF9DBF80C0067F30F00CBF80C00FFF761
:102D40004BFF7060A8680068816841F48061816011
:102D5000AFF30080BDE8F18F2DE9F843EFF3108465
:102D600072B6DFF89853DFF89033A8680168CA227A
:102D70004A625320486218208A6822F480628A607E
:102D8000DFF870231678374647431F4497F80CC086
:102D9000BCF1020F24D1D7F80080D7F810909078BA
:102DA000D8B17A7B012A0AD101213046FFF71FFFF3
:102DB00084F310887968304600F0F4F804E084F376
:102DC0001088304600F0A1F8A86800F01BF83146E2
:102DD0004246484601F0A2FA0EE0FFF74EFF09E036
:102DE000C8684207FCD500F089F84FF40020DFF8EE
:102DF0001413086084F31088FF22A86801684A62EF
:102E0000BDE8F1830068CA214162532242627047E3
:102E10002DE9F041DFF8E442A160CA2209684A6264
:102E20005323DFF8DC224B62156845F0200515605E
:102E3000136803F00703C3F10403237095682D0C96
:102E400005F07F056D1C65709268C2F30E02521C7E
:102E50006280521E6A43A2F5A072DA404FF6FF73F9
:102E60009A422CBFA380A280A74A136843F4002390
:102E70001360A64B1D6845F400251D6050BB9D489E
:102E8000012383704FF0FF35456000239A4D0026E3
:102E900005F10C085FFA83FC182515FB0CFC5B1C84
:102EA000DFB208F80C60062FF4DB06230370886895
:102EB00020F48060886000F021F84FF40021D16098
:102EC000032001F00BFAA0680068816841F480419A
:102ED000816005E0C868410544BF032001F0F3F9B3
:102EE000A1680A68FF20506200220321032001F03C
:102EF000A1F9BDE8F041032001F0BAB9C86800F0BB
:102F0000800060F49060C8607047F8B50746EFF342
:102F1000108472B6032001F0B6F9784DAE683068BF
:102F2000FFF771FF3B46182079494343CA5C022AE8
:102F30001BD100213846FFF75AFE6E48017806295A
:102F40000ED130686E490A68530500F018F821F474
:102F500080618160C1684A07FCD500F016F804E082
:102F60004078884218BFFFF788FEA9680A68FF20EA
:102F70005062032001F07CF984F31088F1BD02D582
:102F8000C1684A07FCD481687047C16801F08001BC
:102F900061F49061C1604FF400205A490860032039
:102FA00001F09CB92DE9F04704461825524E6843BC
:102FB00037188A46397B022904BF2046FFF7A5FF50
:102FC000EFF3108972B6032001F05DF9DFF82C8170
:102FD000D8F80800FFF716FF02203873C7F808A0DA
:102FE000C7F804A0DFF80CA19AF80000062808D161
:102FF00000F076F878754FF0FF31CAF80410002021
:1030000056E0FFF71FFEB9680918B96006F108031A
:10301000B9689AF800206A439A5891422AD39AF8DC
:10302000002004E006F1150E6A431EF8022006F1A6
:10303000150315FB02FC13F80C30062B06D006F125
:10304000080C6B435CF803309942EBD2114669439C
:1030500006F1150E1EF80130062B05D006F1140CF2
:1030600015FB03F50CF805407B753A7506F1150262
:1030700054541DE09AF800109AF800C0614515FB01
:1030800001F20FD006F1140E06F1150C1EF80230F5
:1030900015FB03F50CF8054079753B7506F1140135
:1030A0008C5403E006F1140379759C5400F018F871
:1030B0009AF800109AF801208A4202D0FFF7DDFD4D
:1030C00002E0B968081AB860FF20D8F808100A684A
:1030D0005062032001F0CCF889F31088BDE8F08736
:1030E0009AF800108AF801108AF800407047000032
:1030F00028280040B8240020D02100207824002077
:10310000082800400C0800580008005880080058A3
:10311000DC2100203E4900E03E4981B00A680243BC
:103120000A60096808400090009801B07047F0B547
:1031300085B001F007F901F007F93748016841F45B
:1031400080310160002601F02AF91421684601F05F
:1031500063F9002500240021304A02EBC102907976
:1031600088B11368B3F1904F0BD02D4FBB4205D0FF
:103170002C4FBB4207D19088044304E0928815434A
:1031800001E090880643491C2629E5DB00210291D5
:103190000122032101920391B0B288B10090012075
:1031A000FFF7B8FF0120FFF7B7FF69464FF09040E7
:1031B00001F036F90022B1B24FF0904001F0FCF975
:1031C000A8B280B100900220FFF7A4FF0220FFF711
:1031D000A3FF134E6946304601F022F90022A9B23E
:1031E000304601F0E9F9A0B280B100900420FFF769
:1031F00091FF0420FFF790FF0A4D6946284601F031
:103200000FF90022A1B2284601F0D6F905B0F0BDB1
:103210004C0000584C01005890080058000200086B
:10322000000400480008004800B587B04FEA0D00D0
:1032300009A11C22FDF748FAFEF7A5F96846FDF73B
:1032400065FC07B000BD002001F0D7B913460A465F
:103250000146002001F0E6B9000000000000000077
:103260000000000000020008280003202C000320BA
:1032700026040400DFF8201181B00A6802430A60C6
:10328000096808400090009801B0704778B585B093
:10329000044600F07BF80220FFF7ECFF0FF2041168
:1032A000DFF8F86031F814500095012101910022F7
:1032B000022102920391694656F8240001F0B0F809
:1032C00000F002F806B070BD56F82400002229462E
:1032D00001F072B910B500F00DF8BDE81040012200
:1032E00001F06AB910B500F005F8BDE81040002201
:1032F00001F062B90FF2AC03DFF8A04033F8101010
:1033000054F82000704730B585B004460D4600F0F3
:103310003DF8200008BF042004D0012C18BF022C67
:1033200002D10820FFF7A6FF2900DFF874200FF272
:103330007C000ED130F8141000910023019301217C
:1033400002230291039300F01CF8012000F0D5F84D
:1033500015E0012D13D130F8140000904FF4041340
:103360000295019300F00DF80FF24800045D002271
:103370000F2160B200F05EFF60B200F079FF05B08F
:1033800030BD694652F8240001F04AB814220021E9
:10339000684601F0FDB900004C0000587020002084
:1033A0007C2000202000010002000000100001002D
:1033B000020000000A0607001148016841F480710C
:1033C0000160704710B50C460E490028086805D109
:1033D000810507D501F0ECF920B110BD810558BF7A
:1033E00001F0E0F90848016821F00401012C0160B6
:1033F00001D130BF10BD40BF20BF20BF10BD0000B5
:10340000000400581404005810ED00E038B5474996
:10341000474C4FF40040086000F082FF606C4001B0
:103420000ED5606CC0000BD4FFF7C6FFFFF7C4FFDA
:10343000206C40F480302064206C20F480302064C4
:103440003F22206840F480102060216801F4801140
:1034500000913F210098374841604261016841F482
:103460007C110160026942F47C120261016841F042
:103470003F010160026942F03F020261FFF79CFFD9
:10348000FFF79AFF206C40F001002064206C800759
:10349000FCD50125606C65F38F30606400222648FE
:1034A00001680260036903F050030361FFF784FFC2
:1034B000FFF782FF206C65F3092020640F21206C48
:1034C00040F40040206447F6FF721C481C4C8160A9
:1034D000C260046001F08EF9CA206062532161620B
:1034E000FF21A068C008C000A0606162FEF789F8F3
:1034F0004FF0FF30FDF7E8F9FAE738B5044600F081
:1035000079FE14F1010F054609D000F018FF2418C8
:1035100005E00C48016821F00401016030BF00F0B3
:1035200069FE401BA042F4D331BD0000104000589A
:1035300050000058040C005880080058BC2300209C
:103540000028004010ED00E00249034A01600261DA
:10355000704700BFAB140008D31400084018491C82
:103560001CBFB1F1010100F8012DF9D17047000035
:10357000C9B202788A421AB11CBF10F8012FF9E7CC
:1035800018BF00207047000080B500B906A00549AB
:103590000B681BB122220021984701E001F0CCF911
:1035A000222002BDC8240020636F6E7374726169AB
:1035B0006E742068616E646C65723A20626164208A
:1035C0006D6573736167650000F10103810704D0C5
:1035D00010F8011B820781B1FAD10268A2F1013112
:1035E000914311F0803104BF50F8042FF6E709BA77
:1035F000B1FA81F100EBD100401CC01A7047000005
:10360000C9B2830706D0521E22D310F8013B99425B
:10361000F7D11FE0083A13D302F1040241EA012175
:1036200041EA014150F8043B121F21BF4B40A3F176
:10363000013C2CEA030C1CF0803FF3D0C9B2001F00
:10364000083210F8013B521E28BF91EA030FF8D848
:1036500018BF0120401E704710B5144600F002F854
:10366000226010BDC1F30A5343B14A0012F5001F96
:1036700028D2A3F2FE32A1EB0251704750EA410C6E
:1036800020D001F0004C31EA0C01B1FA81F204BF04
:10369000B0FA80F3D2180B3AB2F120032CBF00FA33
:1036A00003F1914041EA0C013EBFC2F1200C20FA27
:1036B0000CF319439040524240F2FD33D21A01EB11
:1036C000035170470022704741EA030C50EA4C0C4A
:1036D00052EA0C0C4FF4001C09D307D01CEB410F2D
:1036E0009CBF1CEB430F8B4208BF824270471CEB10
:1036F000430FFBD8994208BF9042704741EA030C40
:1037000050EA4C0C52EA0C0C4FF4001C09D307D0C1
:103710001CEB410F9CBF1CEB430F994208BF90422A
:1037200070471CEB410FFBD88B4208BF82427047A9
:10373000124254D440F2FF7C1CEA11530FD063456F
:1037400031D09B1863453CBF01EB0251704701F03B
:10375000004141EA0C510020AFF30080704750EA6D
:10376000410320D001F0004C91EA0C011CD0B1FAC9
:1037700081F30B3B9A420DD9D21A994051EA0C01C0
:10378000C3F1200C20FA0CFC61449840531C40F219
:10379000FF7CD7E7914041EA0C01C2F1200C20FAEE
:1037A0000CF3194390407047B0FA80F31533202B87
:1037B000E0D3202AEED3203A203B9A4209D9D21AEC
:1037C00000FA03F141EA0C010020531C40F2FF7C97
:1037D000B8E700FA02F141EA0C01002070475242BA
:1037E00040F2FF7C1CEA11530DD06345DBD0B2EBF5
:1037F000030C3CBFA1EB025170470CF1010221EA1E
:10380000035141F4801150EA410CCCD001F0004C3E
:10381000352A27DC30B481EA0C01B2F1200309DA41
:10382000C2F12003044601FA03F5D0402843D140F9
:103830009C400CE0C3F12002450020FA03F418BFBD
:1038400044F0010421FA03F091400C43002174F18B
:10385000004550F1000051EB0C01244230BC7FF4D4
:103860007BAF70476146002076E70000C1F30A5342
:1038700040F21E42D31A0CDDCA0283F3070342EA68
:10388000505242F00042DA4002EBE17282EAE1700B
:1038900070476FEAE17203F2E13008B182F0004054
:1038A0007047000010F0004160B148BF4042B0FADC
:1038B00080F29040D21CC2F5846241EA025202EBCF
:1038C000D021400570470000841A71EB030604D232
:1038D0006E40001BB141121973414FF4001C1CEBE8
:1038E000410F34BF7CEB430683E00C0DA4EB135671
:1038F000362E00F37C80012E45EAC32341DC43EAE7
:10390000525312BFD20292025B08240545EAC1213C
:1039100041EA5051D2EBC020994125D407D1B0FAE9
:1039200080F610FA06F162D00020203608E0B1FAE5
:1039300081F6B140C6F1200220FA02F21143B040F4
:103940004FEAF474B4EB465434F001064FEA7404C1
:103950000AD8D6F50016760D04F00044F04061FA5E
:1039600006F25040F1404840C00A40EA415021F080
:10397000004128BF5FEA500550F1000044EBD1211F
:1039800035E0DB0A45EAC121C90AB6F120050EDDA2
:1039900042EA0242120CC5F1200603FA06F6EB4099
:1039A00042EA06056D42984161F100010DE062FABC
:1039B00006F5F240554063FA06FC82EA0C02F34039
:1039C0005A406D42904161EB030111F4801F05D113
:1039D000641E620502D06D004041494121F480110E
:1039E000430875F1004350F1000041EB045170BCF5
:1039F00070471CEB410F15D223F0004352EA4306F7
:103A00000BD04FEA4C0CBCEB410F04D80C0D661EDA
:103A1000342EB7DDEBE7801A994150EA410608BF22
:103A20000021E4E708BF1CEB430F28BF6FF0000143
:103A3000DDE7000070B491EA030F4FF000457FF519
:103A400043AF6B40841A71EB030603D2001BB141F4
:103A5000121973414FF4001C1CEB410F34BF7CEB77
:103A6000430442E00C0DA4EB1356352E4FDC45EA1F
:103A7000C323DB0A45EAC121C912B6F120050DDDD9
:103A800063FA05F6EB4086EA0305124218BF45F0DB
:103A90000105C01851F100010CD213E062FA06F5DD
:103AA000F2405540F3415A40B340F3405A40801829
:103AB000594107D349085FEA30005FEA350528BF5E
:103AC00045F0010501F58011420875F1004250F101
:103AD000000041EB04514E0016F5001F70BC38BFCA
:103AE00070470020090D090570471CEB410F10D2EB
:103AF00052EA43060BD0BCEB410F05D80C0DAB438B
:103B0000661E342EB6DD02E0AB438018594170BC0E
:103B1000704770BC70470000F0B540F2FF7581EA55
:103B2000030C0CF0004C15EA11541DBF15EA135795
:103B3000AC42AF42E5E0BC41C1F31301C3F3130350
:103B4000801A994143F4801304D2641E001849413D
:103B500080185941C90241EA5051B1FBF3F603FB09
:103B60001611A2FB0675D7EBC020A94102D2761E22
:103B700080185941C90241EA5051B1FBF3FE03FBE1
:103B80001E11A2FB0E75D7EBC020A94103D2AEF1E6
:103B9000010E80185941890241EA9051760546EAA2
:103BA0008E2EB1FBF3F603FB1611A2FB0675D7EBC5
:103BB0008020A94102D2761E80185941C90241EAEB
:103BC00050514EEA060EB1FBF3F603FB1611A2FBB1
:103BD0000675D7EBC020A94102D2761E8018594144
:103BE000C90241EA5051B1FBF3F703FB1711A2FBE5
:103BF0000735D3EBC020A94167F100070CBF004295
:103C000047F0010766F3D5274FEA1E31B80814F5CF
:103C1000806412DDBD0775F1004250EB0E5051EB90
:103C2000045111F5801F5CBF41EA0C01F0BD4CF05E
:103C30007F6141F0E0410020F0BDBD076D0840EA22
:103C40000E5041F48011D4F10104B4F120060ADAD7
:103C5000C4F120060200E04001FA06F3E1401843F7
:103C6000B24015430EE0342C13DCC6F1200445EAC3
:103C700040056D0820FA06F2154321FA06F0A1402E
:103C80000D43002175F1004250F1000051EB0C0191
:103C9000F0BD00205FEA0C01F0BDCFB992185B4186
:103CA000B3FA83F704BFB2FA82F6BF190B3FB7F13C
:103CB00020062FBF02FA06F3BB40C7F1200622FA06
:103CC00006F638BF3343BA401CB1E419641E33E72B
:103CD0007F4231F00041B1FA81F404BFB0FA80F6BE
:103CE000A4190B3CB4F120062FBF00FA06F1A14045
:103CF000C4F1200620FA06F638BF3143A0403C1B31
:103D00001AE7AC421ABF05EA1357AF4212E050EA75
:103D100041061CBF52EA4306BFE750EA410730465E
:103D200061461CBF41EA0551F0BD52EA430C08BF91
:103D3000C143F0BD00204FF4001616EB410F98BFB1
:103D400016EB430F08BF16EB410F24BFC14305E03C
:103D500016EB430F0CBF61464CEA0551F0BD000065
:103D6000400D40F21E4C40EAC120BCEB115C40F01B
:103D7000004003D48CF30701C84070476FEAE1703C
:103D80007047000050B1B0FA80F18840C91CC1F5FD
:103D90008461090501EBD021400570470146704759
:103DA00030B540F2FF7C1CEA11541DBF1CEA1355CC
:103DB000644565453FE0641981EA030C6FF35F5386
:103DC0000CF0004C43F48013C90241F0004141EA79
:103DD000505EC5021100A5FB020200284FF0000052
:103DE000EEFB01204FF00001E3FB052118BF42F07C
:103DF0000102401800214941E3FB0E01A4F5806453
:103E00000D0302D292184041494154F1010470DD82
:103E1000450872F1004250F1000051EB0451A1F548
:103E2000801102D441EA0C0130BD40F2FF7E4CEA21
:103E30000E51002030BD0CEA1355644518BF65458E
:103E400081EA030C0CF0004C41D050EA410E1CBF3B
:103E500052EA430E02E06146002030BD24422C4469
:103E60001BD15FEA050EF6D0090302BF0146002010
:103E7000AEF1140EB1FA81F5AEEB050401FA05FEC0
:103E80000C35C5F1200100FA05F5C8404EEA000ED8
:103E90006FF35F5343F480139CE733F00043B3FAAE
:103EA00083F504BFB2FA82FE75440B3D641BB5F185
:103EB000200E2FBF02FA0EF3AB40C5F1200E22FAFE
:103EC0000EFE38BF43EA0E03AA40641C7CE750EAAA
:103ED000410E14BF52EA430E6FF000014FF400157B
:103EE00015EB430F8EBF194615EB410F9DE7B4D874
:103EF00030BDD4F10104B4F120050FDAC4F120057E
:103F0000520828BF42F0010210FA05FE01FA05F539
:103F10007244E2BFE0402843E1400FE0352C9ADCD8
:103F2000C5F1200452EA400220FA05F218BF42F01F
:103F3000010231FA05F0A1400A43002172F100426A
:103F400050F1000051EB0C0130BD000000487047FB
:103F5000D4200020D3BBD9B1B2F5803F5BD2022A76
:103F60001ED98C46B1FBF2F102FB11C31B0443EADC
:103F70001043B3FBF2FC02FB1C3380B240EA034364
:103F8000B3FBF2F002FB103240EA0C400023704712
:103F9000022A05D98446B0FBF2F002FB10C270473A
:103FA0004AB105D100F0010249085FEA30007047CC
:103FB00000220023704700F0C3BC0B000200002168
:103FC00000207047F7D3002200237047904271EB26
:103FD000030CF2D370B5B1FA81F4B3FA83F52C1B5C
:103FE000A340C4F1200532FA05F63343A2405FF046
:103FF0000046E64002E05B085FEA3202841A71EB99
:10400000030524BF204629467641F4D302000B0065
:104010003000002170BD70B5B1FA81F4B2FA82F5BA
:10402000C4F120046419B4F12006DAD3B2405FF081
:104030000044F440002502E052085FEA3303C61A48
:1040400071EB020E24BF3046714664416D41F3D3DB
:1040500002000B002000290070BD00001FB5417850
:104060000024FF294BD1B0F803104F4A40F601431A
:10407000C91A04D0123930D0091F1CD03FE0B0F863
:1040800007105388491E99420BD1002200F10D03FD
:104090008DF80C2002930124B0F80B108DF80D1050
:1040A00017E0D28891422AD1012400F10D028DF847
:1040B0000C40029209E0117A09B31472032200F154
:1040C0000D0301248DF80C200293B0F80B008DF83D
:1040D0000D0002A800F036FC11E0B0F80710D288FD
:1040E0004B1E93420BD100F10A0301930023427A45
:1040F00000920022B0F80500FCF7A1FE0124204642
:1041000004B010BD10B586B02848274CFDF722F842
:10411000009408235FF0010225A10220FCF7B0FD06
:10412000002104910191A01C05900A220123042181
:104130000392029300910423B4F8000020A202210C
:10414000FCF7ECFD0021049102910191201D0590E6
:104150000A22202103920091012320881CA202211F
:10416000FCF7DCFDA01D05900121049100200A222E
:10417000032301900421039202930091F8232088E5
:1041800017A20221FCF7CAFD0020207206B010BD64
:104190001CB5009101240448818804720123008821
:1041A0000022FCF716FE16BD842400205D400008A6
:1041B0008FE5B3D52E7F4A982A487ACC20FE00009E
:1041C00019ED82AEED214C9D4145228E22FE00006C
:1041D00019ED82AEED214C9D4145228E23FE00005B
:1041E00019ED82AEED214C9D4145228E24FE00004A
:1041F0007047000001484068704700BF64200020FD
:104200000901020002D43B48815470473A4B02F046
:104210000F021A4402F8041C7047384B19684FF615
:10422000FF020002114000F4E060084334490843F3
:104230001860704770B5314B1C68C4F30223012429
:10424000C3F10705052D2EBF0F2504FA05F56D1ED8
:104250001E1D072E34BF0023DB1E2940994004FA9F
:1042600003F3BDE870405B1E1A401143C8E700002D
:10427000010007D4012200F01F01224B8A404009AF
:1042800043F82020704701000BD4012200F01F01E9
:104290001D4B8A40400943F82020BFF34F8FBFF3E6
:1042A0006F8F7047401EB0F1807F01D301207047AF
:1042B0001649174A48600023F02010708B600720D1
:1042C000086000207047010007D4012200F01F01A0
:1042D000104B8A40400943F820207047010007D462
:1042E000012200F01F010C4B8A40400943F82020B6
:1042F0007047000000E400E018ED00E00CED00E085
:104300000000FA0500E100E080E100E010E000E0DC
:1043100023ED00E000E200E080E200E01047000052
:10432000032010B5FFF779FF0F2000F0BFFB00243A
:10433000002814BF012400F0DBFB204610BD084814
:1043400000787047074805E00648016841F002011F
:1043500001607047016841F0010101607047000091
:1043600064200020042004E038B5EFF3108472B616
:10437000274D6946281D00F0D8FC6946281D00F02D
:1043800034FD38B184F31088BDF80010214AFEF7DF
:104390005DFF31BD0120287084F3108831BD80B5E8
:1043A000FEF751FF022100910023194800F124017A
:1043B0004FF48052001D00F09CFB01BD00BFF8B51A
:1043C00014460026EFF3108510F1010F1ED00128CE
:1043D0001CBF02284FF0FF3618D1BCB1264672B67A
:1043E0000B4F012392B2381D00F098FB00281CBF30
:1043F0003978002908D000223A7085F31088A1B2DC
:10440000044AFEF723FF01E085F310883046F2BD31
:104410001810002069430008002200F033BD00009E
:104420002DE9F04F0027674A674B4FF00F0805460C
:104430000E4638E0654CA54214BF072404248C4086
:10444000634944EA0E0441F82C40C143D3F800C04C
:10445000746801EA0C0CE40248BF40EA0C0CC3F893
:1044600000C0D3F804C0746801EA0C0CA40248BF71
:1044700040EA0C0CC3F804C0D2F800C0746801EA2A
:104480000C0CE40348BF40EA0C0CC2F800C0D2F8A0
:1044900004C001EA0C0C7168890348BF40EA0C0CA7
:1044A000C2F804C07F1C316831FA07F000F0828046
:1044B0000124BC4014EA0100F4D04FEA470C032168
:1044C00001FA0CF16FEA010E716801F00309B9F10C
:1044D000010F1CBF01F00301022912D1A968D6F80F
:1044E0000C900EEA010109FA0CF949EA0101A960F0
:1044F000696821EA04047168C1F30011B9400C43F2
:104500006C60B900347904F00304032C21D0EC680A
:10451000D6F808900EEA040409FA0CF949EA0404F2
:10452000EC60347904F00304022C12D1FC0805EB92
:10453000840401F01C09D4F820A008FA09FB2AEA37
:104540000B0AD6F810B00BFA09F949EA0A09C4F8BF
:1045500020902C680EEA040E347904F0030404FA67
:104560000CF444EA0E0CC5F800C0746814F4403F23
:1045700098D0DFF85CE04FEA970C5EF82C4001F031
:104580000C0108FA01FE24EA0E0EB5F1904F08BFA7
:1045900000240ED00F4CA54208BF012409D00E4CB8
:1045A000A54208BF022404D00C4CA5427FF442AFC0
:1045B000032444E7BDE8F08F0AB18161704781624E
:1045C000704700008008005800080058001000489C
:1045D000080001400004004800080048000C0048A2
:1045E000624900E0624981B00A6802430A600968D2
:1045F00008400090009801B0704790B95D485E494E
:1046000001604FF4E132426000230C224FF400417C
:104610008360C360036183614261C161836200F0B2
:104620004BBC704738B5002488B9544D51482B60B5
:10463000514B036000F080FC012805D007D303280C
:1046400004D038BF022402E0012400E00324204605
:1046500032BD002804BF474800F0B7BC704718B906
:104660004448C06F01F01FBA704738B586B00446A1
:1046700014216846FFF7D0FE22683F498A4261D183
:104680000220FFF7AFFF0221019100220292402099
:1046900000F05AF83A4D2846FFF7C2FE0220FFF715
:1046A000A1FF0221019100220292802000F04CF82B
:1046B0002846FFF7B5FE0120FFF794FF0221019184
:1046C00002914FF4006000F03FF84FF09040FFF788
:1046D000A7FE2C482C4D826A012161F301028262FF
:1046E0000022016841F4804101600F21006800F45C
:1046F0008040059005982420FFF79CFD2420FFF7BB
:10470000B7FD0220FFF76CFF0420FFF769FF1F4889
:1047100028600F21696000201022E8608021686114
:10472000A861E8612862AA602961284601F09CF826
:10473000E567AC6200220F213A20FFF77BFD3A20AB
:10474000FFF796FD07B030BD0321009003910722CB
:1047500004926946704700680749884204D1074AB5
:104760001068002818BF0047704700004800005834
:104770004C0000583C21002000380140C424002097
:104780000004004860000058E02200204404024079
:1047900010B5044610460A4601462046FEF7DEFEE6
:1047A000204610BD1048016841F480410160704707
:1047B00010B50D4A0D4B106820F480401060322176
:1047C0001C680B48B4FBF0F0484300E0401E516900
:1047D0008B0501D50028F9D15069810501D5032049
:1047E00010BD002010BD00000004005888200020EB
:1047F00040420F0038B5040052D094F8210028B987
:10480000002184F820102046C046C0460220DFF870
:10481000B81084F821000A68D00645D42268CA215D
:10482000516253202168486200F04BF8FF2510B117
:1048300000F03FF834E02168DFF890008A68024019
:104840008A6022689368606821690343A0690B430A
:10485000034393602068E168016120680169A268F0
:1048600041EA024101612068C16821F08001C16014
:104870002068C16C89088900C1642268D36CE16931
:1048800060690B430343D36421688868810609D4B7
:1048900000F015F830B100F00CF8002084F820008A
:1048A000012032BD20684562012184F821100020DA
:1048B00032BD20684562042184F8211070472046EB
:1048C00006E020461DE000000C280040BFFF8FFFDF
:1048D00038B504462068C16821F0A001C160FFF727
:1048E00089FC05462068C168880608D4FFF782FC69
:1048F000401B40F2E9318842F4D3032032BD00204E
:1049000032BD38B504462068C1684A0612D44FF05B
:10491000FF31C160FFF76EFC05462068C16848069C
:1049200008D4FFF767FC401B40F2E9318842F4D31A
:10493000032032BD002032BD012001F073B9000018
:1049400070470000F8B506464C4D307920B101287B
:1049500027D003285AD0F1BD31680A78012A4FF0D8
:10496000006004D0022A09D0072A12D0F1BD00232A
:1049700028606B7400F090F82B74F1BD0122286060
:104980006A7400F089F8002129743D48FCF7C6FBE1
:10499000F1BD01218DF8001002206946FFF7F8FBF8
:1049A000F1BD747900271EE0316805F10803394430
:1049B0001844FBF789FE00F069F80028FBD1D5F810
:1049C00000C0D5E90223DCE90001994208BF90420A
:1049D00009D10CF108002860287CC0F10800241AD5
:1049E000C71900202874287CC0F108029442DBD249
:1049F000002CC2D0316805F108032246394418441E
:104A0000FBF762FE287C24182C74F1BD287CA8B129
:104A1000C0F1080105F10803FF221844FEF79EFDCE
:104A200003E000F033F80028FBD12868D5E90267DD
:104A3000D0E90023BB4208BFB242F2D1687C90B1FA
:104A400001289AD14FF0005200211170BFF34F8F0F
:104A50000C490D480B6803F4E06303430B60BFF39C
:104A60004F8F00BFFDE7FCF723F80020FCF720F88C
:104A700001210020FEF7A6FCFAE700002824002010
:104A8000300300080CED00E00400FA05286801225C
:104A900005F10801FCF7A3BB3068C17829703268C2
:104AA0009078687031684878A870704770B50F4E7C
:104AB000044630780025A8B101F003F932784FF4AC
:104AC0007A71B1FBF2F2B0FBF2F0FFF7EBFB48B901
:104AD000102C07D2002221464FF0FF30FFF7AAFB2F
:104AE000B46000E00125284670BD00BF64200020AE
:104AF000704730B5039C016000250021C160416111
:104B00000561A107856142600381047704D50089AE
:104B100010B14FF0FF3030BD002030BD2DE9F84F0F
:104B2000064684B03089002500270C46BB46002885
:104B30000CBF4FF00208D846716999B180B930694D
:104B4000756800F1010CAC4528BFACEB050C35686D
:104B5000285C15F80CC000EB0C25AD1CADB203E0D1
:104B6000054600E000B102463069D6F80CC0604549
:104B700023BFD6F804E0AEEB0000401B002008EB9A
:104B8000020E03FB0EFC844532BF0020B0FBFEF991
:104B90000EFB1900C0B2804509DA96F81CE05FEA06
:104BA000CE7948BF83465FEA8E7048BFC346100087
:104BB00000F0B7807068614459448842C0F0B18009
:104BC000B94693460294ADF80020039357E082075C
:104BD0003CD53089002840F0A48032681A44270A66
:104BE00002F8024C2246D6F800C09C440CF8017C26
:104BF000274630681844FBF767FD7169B069611892
:104C00007161401C019CB06117E09CB3307FC2070A
:104C1000DDD5308948B930681844FF2100F8021CFE
:104C2000FF223168194401F8012C0027706924180B
:104C300074615C463089002340B931680C70200AE9
:104C40003268507002237069801C706108EB0405A3
:104C50000020ADB230616CB1BA440298D6F800C001
:104C600000EB0A0122460CEB0300FBF72DFD7069F7
:104C70002418746109F10109B069401CB061039AFC
:104C800070683169914542D2691881422CBF081A77
:104C90000846306103463089A8B93168BDF8000084
:104CA000C8545B1C7068834228BF1B1ABDF8000003
:104CB0003168000AC8545B1C7068834228BF1B1A05
:104CC0007069801C70617468BDF80000E41A844249
:104CD00088BF044602990BFB09FAABEB04025C4562
:104CE0005144019203D090D2307F00288DD1376893
:104CF0002246F818FBF7E8FC706920187061274617
:104D0000BDF80050019C45440023ADB2A3E708EB79
:104D1000010282422CBFA2EB000888443068404464
:104D200000E0002005B0BDE8F08FF0B5024600239A
:104D3000108900280CBF0225002554690026002C8C
:104D40004FD060B9D36857685E1CBE4228BFF61BBF
:104D50001768FB5CBE5D03EB0626B6B200E00646B4
:104D6000137F03F00303012B23D14FF6FF739E4201
:104D700008BF002808D0D36817699F4219D2C0B174
:104D80005768FB1A834214D25668D368A41B1C19B7
:104D900054610024D46058B9012E94BFC6F10106B5
:104DA000012610680378805D03EB0026B6B200E0B0
:104DB0000646D7685468E819A04228BF001B13684C
:104DC000D2F814C00344A819BCEB000005D0F719B1
:104DD000ED19A54228BF2D1BD56050619069401E7A
:104DE000906101B10E801846F0BDF0B50246002476
:104DF000108900280CBF0225002553690026002BCE
:104E00003BD0D468234658B95768661CBE4228BFB9
:104E1000F61B176817F804C0BE5D0CEB062600E011
:104E20000646177F07F00307012F1ED14FF6FF7CC0
:104E3000B7B2674508BF002807D150680023012892
:104E400094BFC0F1010001200AE01769A7420CD20B
:104E500058B157683C1B844207D20023064604E041
:104E600014682678205C06EB00265068EC18844213
:104E70002CBF251AED181068441901B10E80204688
:104E8000F0BD000000B500BF1300964694461039EF
:104E900028BFA0E80C50FAD85FEA417C28BF0CC0BC
:104EA00048BF40F8042BC90728BF20F8022B48BF91
:104EB00000F8012B00BD000038B5040009D004F152
:104EC0008405696809B900F01EF800F021F801288E
:104ED00001D1012032BDA06A08B100F02AF800F02B
:104EE0000AF821F02A01FFE7816000F01BF8BDE815
:104EF000324000F05EBB2068416821F4904141607F
:104F0000206881687047002028702046FFF7ADBBFD
:104F1000242169602068026852085200026020461D
:104F200000F0DEB92068016841F00101016020460F
:104F30007047204600F0DABA38B5044604F154054B
:104F40001346686B202832D121B3180022D0216586
:104F50002B806B800020E86321216963A86AD8B1A7
:104F6000DFF87013C162DFF87003A96A0863A96AE9
:104F7000DFF8680348630020A96A88632068216D10
:104F800000F12802A86A00F0DBFC28B11020E863D9
:104F900020216963012032BD21684020086200F0B1
:104FA00008F841F0800100F00CF8F8D132BD022081
:104FB00032BD206800F1080151E8001F00F108032C
:104FC000704743E80010002870472DE9F04105467E
:104FD00040F60F0C2A68D369104613EA0C0F0768D5
:104FE000966805F15C0407F0200003F020010DD164
:104FF000002914D010B9F00040F18D80A16900297A
:1050000000F03C812846BDE8F0410847DFF85CC766
:1050100016EA0C0F04BFDFF858E717EA0E0F7AD034
:105020005FEAC37E48BF5FEAC75807D54FF0010E5D
:10503000C2F820E0626B42F0010262639A070AD56F
:10504000F20708D5D5F800800222C8F82020626B4C
:1050500042F0040262635A070AD5F20708D5D5F870
:1050600000800422C8F82020626B42F002026263D2
:105070001A070DD5002808BF16EA0C0F08D0D5F87E
:1050800000C00822CCF82020626B42F00802626364
:105090001A0509D57B0107D52F684FF400623A62E3
:1050A000626B42F020026263626B002A32D031B13F
:1050B00008B9F00003D5A16909B128468847606B9B
:1050C00029688A68510602D410F0280F1DD028469E
:1050D00000F01FFB28688168480611D500F0DAF857
:1050E000FCD1606A60B10FF239718163606A00F0CF
:1050F0009FFC00280ED0606A816BBDE8F041084734
:105100002846BDE8F04100F00FBE284600F00CFE36
:1051100000206063B2E02069012871D1D8066FD504
:10512000F9066DD51020106229688868410630D5CF
:10513000616A0868406880B20028EBD022889042FB
:10514000E8DA6080086801688A061AD400F0B0F8CE
:1051500021F4807100F09AF8F8D100F0ABFAFCD19C
:1051600000F0ABF8FCD1202020630021216100F089
:105170009FF821F0100100F089F8F8D1606A00F082
:1051800023FC0220606121886088091A89B22846C0
:1051900032E0228861886088511A00281CBF88B2DA
:1051A00000286BD02A46106850E8003F054623F4DB
:1051B000907300F065F8F6D1106800F1080300F173
:1051C000080653E8003FDFF80803034046E80030D4
:1051D0000028F1D12020206300232361A3611368FC
:1051E00053E8003F156823F0100300F049F8F6D1AA
:1051F0000220606189B21046BDE8F04100F095BD23
:10520000D80209D5710207D54FF4801010622846E4
:10521000BDE8F04100F08ABD180609D5390601D471
:10522000300205D5E16949B32846BDE8F041084799
:10523000580611D579060FD500F03AF821F0400153
:1052400000F024F8F8D12020E0620021E161284636
:10525000BDE8F041FFF77FBA180206D5790004D502
:105260002846BDE8F04100F062BDD80148BF002FDC
:1052700004D52846BDE8F04100F05ABDBDE8F081F4
:1052800045E800300028704721F4F07142E8001032
:1052900000287047296801F1080252E8001F2868B9
:1052A00000F1080321F0400143E800100028704796
:1052B000286850E8001F02467047286800F108017E
:1052C00051E8001F00F1080321F0400143E80010FD
:1052D0000028704789570008C9570008D1570008AF
:1052E000F8B50446DFF8600522681368A16803403A
:1052F00020690B4361690343E0690B430343136077
:1053000000255168E06821F4405101435160A369D0
:10531000DFF838158A421CBF206A03439668DFF81D
:105320003005DFF830E5DFF8307506403343936031
:1053300068A6D36A606A1B0940EA0313D362724508
:10534000DFF818054FF4004338D13F6807F0030732
:10535000032F4CD8DFE807F0024542484FF0010C1C
:10536000E169B1F5004F4FF6F07740F07F80BCF176
:10537000010F09D0BCF1020F0AD0BCF1040F70D0AC
:10538000BCF1080F70D098E000F0B1FC002814D0F8
:10539000626A616836F81230B0FBF3F04A0802EB3B
:1053A0004002B2FBF1F0A0F11001B942EBD207408C
:1053B000C0F3420007432068C7607FE08A4216D1ED
:1053C0003F6817F4406723D0B7F5806F09D0B7F571
:1053D000006F03D0B7F5406F06D008E04FF0020C25
:1053E00007E04FF0040C04E04FF0080C01E04FF030
:1053F000100C8A42B4D1BCF1000F09D0BCF1020FED
:105400000AD0BCF1040F15D0BCF1080F15D054E040
:1054100000F065FC002851D0616A36F81120B0FB1D
:10542000F2F6626802EB42018E4246D31303B342A6
:1054300005D242E000F009FCECE71846ECE7500822
:10544000002110EB062051EB16610023FEF782FDD0
:10545000A0F54076DFF80874BE422ED22168C860FD
:105460002CE000F0F2FB91E7184691E7BCF1010F48
:1054700009D0BCF1020F09D0BCF1040F18D0BCF167
:10548000080F18D019E000F032FCB8B1626A36F8A3
:1054900012306168B0FBF3F000EB5100B0FBF1F0AB
:1054A000A0F11001B94208D2226880B2D06005E0B4
:1054B00000F0CBFBE9E71846E8E7012504F16800B6
:1054C0000121002341800180C36003612846F2BDB1
:1054D000FEFFFFEF010002000400060008000A00C2
:1054E0000C001000200040008000000190F82810FF
:1054F000CA0706D502685368C16A23F400330B4318
:10550000536090F828108A0706D502685368016B2B
:1055100023F480330B43536090F828104A0706D5D4
:1055200002685368416B23F480230B43536090F867
:1055300028100A0706D502685368816B23F40043DC
:105540000B43536090F82810CA0606D5026893688A
:10555000C16B23F480530B43936090F828108A06A4
:1055600006D502689368016C23F400530B439360E3
:1055700090F828104A0610D502685368416C23F44D
:1055800080130B435360436CB3F5801F05D1536800
:10559000816C23F4C0030B43536090F828100A0673
:1055A00006D501684A68C06C22F4002202434A60B2
:1055B0007047F8B5044604F184050020E8606FF0F8
:1055C0007E47FEF717FE0646206801680A0708D5E1
:1055D0000097334600224FF40011204600F01AF8DD
:1055E00060B9206801684A070AD50097334600224F
:1055F0004FF48001204600F00DF808B10320F2BD01
:10560000202068602021A9600020E0660021216739
:105610002870F2BD2DE9F041069C05460E469046E5
:105620001F462868C1693140B1420CBF01200020EB
:1056300040452BD114F1010FF3D0FEF7DBFDC01B69
:10564000844200D354B900F02BF8FCD100F032F8BA
:10565000FCD100F01EF80021017015E028680168F7
:105660004A07DED5C1690805DBD52A684FF4006119
:10567000116200F015F8FCD100F01CF8FCD100F02C
:1056800008F8C16000220270032000E00020BDE89D
:10569000F08105F184002021416020228260704762
:1056A000286850E8001F024621F4D07142E800103B
:1056B00000287047286800F1080151E8001F4908D8
:1056C00000F10803490043E800100028704710B5B6
:1056D00000F008F8FCD100F00FF8FCD12021C0F850
:1056E000881010BD016851E8002F0B4622F0C0025F
:1056F00043E8002100297047016801F1080252E8DF
:10570000002F01F1080422F4000244E800210029DE
:10571000704710B500F011F8FCD100F018F8FCD17A
:10572000C16E012902D100F025F8FCD12021C0F87A
:105730008C100022C266426710BD016851E8002F3C
:105740000B4622F4907243E800210029704701685B
:1057500001F1080201F1080452E8002FDFF80411FA
:105760000A4044E8002100297047000001000010B1
:1057700020010004026852E8002F036822F01002A2
:1057800043E800210029704710B50146886A09687E
:105790000A68930614D40021A0F85610026802F19A
:1057A000080151E8002F036803F1080422F0800289
:1057B00044E800210029F1D100F03BF8FCD110BDF4
:1057C000BDE81040FEF7C7BF806A00F0B2BA000023
:1057D000F8B5846A04F1880504F1560728686E68F4
:1057E00021688A68110606D5212804D10020388056
:1057F0002046FFF76CFF21688868410606D5222EF7
:1058000004D1002038812046FFF783FFA86840F0CC
:105810001000A8602046BDE8F24000F085BA000004
:10582000806A00F1560100220A8100230B8000F0FB
:105830007BBA016851E8002F0B4642F0400243E872
:105840000021002970470000F369FFCF008000406D
:10585000FFF4FF1100380140880000580024F400D4
:1058600000FD0F00FEFFFFEF38B5040001D101205D
:1058700032BD2168DFF88423914204F1240500F051
:1058800046F80221697020680268A068E168236810
:105890006FF30E12024320690A4361690243A06953
:1058A0000A43E1690243206A0A4302431A60204620
:1058B00000F077F9A068B0F5804F04BF0021616067
:1058C0002079696A00F03F0000F014F838B105282B
:1058D00005D2204600F082F900F012F803E0002023
:1058E00028636863A8630021A9610120687029709A
:1058F000002032BD0860A96AE86A486060687047A5
:10590000296B00200860696BA86B486070470BD258
:10591000DFF8EC0241181423B1FBF3F18900DFF842
:10592000E4222962EA617047DFF8DC0241181422A0
:10593000B1FBF2F18900DFF8D4022962E861704717
:10594000F8B5044604F1240600253078012801D179
:105950000220F2BD012030707778012F30D1022073
:1059600070700027B7612068D0F800C04FEA5C076C
:105970004FEA470CC0F800C0204600F0F6F8216856
:10598000F06820B10A6842F00E020A6008E0086878
:1059900020F0040008602068016841F00A010160FD
:1059A000706A0168CA0301D500F078F8306B08B15D
:1059B00000F074F82068016841F00101016001E025
:1059C000357002252846F2BD40B100F124014A7825
:1059D000022A05D00420886100220A700120704745
:1059E0000268136823F00E0313604A6A136823F4F5
:1059F0008073136000680268520852000260012040
:105A000091F82020CB6902F01C02904058608A6A0D
:105A1000C86A5060086B30B1026822F4807202607C
:105A2000486B8A6B426001224A7000200870704700
:105A300038B500F1240200245178022903D0042053
:105A40009061012428E001680B6823F00E030B60CD
:105A500001680D686D086D000D60516A0B6823F4D4
:105A600080730B60012192F82030D56903F01C038C
:105A700099406960936AD16A5960116B31B10B68C2
:105A800023F480730B60516B936B4B600123537055
:105A90001470516901B18847204632BD016841F454
:105AA000807101607047F8B500F124010423CA69D0
:105AB00014680268156891F8206006F01C0603FA65
:105AC00006F73C4210D06F070ED51468A50603D424
:105AD000146824F00404146000F03EF8C96800293A
